C51 COMPILER V9.60.0.0   MAIN                                                              12/01/2022 20:32:07 PAGE 1   


C51 COMPILER V9.60.0.0, COMPILATION OF MODULE MAIN
OBJECT MODULE PLACED IN .\Objects\main.obj
COMPILER INVOKED BY: D:\Download\keil\C51\BIN\C51.EXE main.c OPTIMIZE(8,SPEED) BROWSE DEBUG OBJECTEXTEND PRINT(.\Listing
                    -s\main.lst) OBJECT(.\Objects\main.obj)

line level    source

   1          #include <REGX52.H>
   2          #include "Delay1ms.h"
   3          #include "Delay999ms.h"
   4          #include "LCD1602.h"
   5          #include "MatrixKey.h"
   6          #include "INTRINS.h"
   7          #include "string.h"
   8          
   9          sbit beep = P3^0;
  10          sbit led = P3^7;
  11          
  12          //全局变量
  13          unsigned char getkeyNum;
  14          passWord[6] = {1,2,3,4,5,6};    //默认设置代码为123456
  15          char pw[6];                                             //存储输入密码
  16          char i = 1;                                             //存储显示输入密码位置
  17          char m;                                                 //定位重置密码的输入值
  18          unsigned char resetNum ;                //接收重置时返回的键值
  19          char open = 'f';                                //标志是否开锁成功
  20          
  21          
  22          //重置密码
  23          void resetPW(unsigned char getkeyNum){
  24   1              if(getkeyNum == 'A'){
  25   2                      LCD_ShowString(2,1,"RESET");
  26   2                      LCD_ShowString(1,1,"      ");           
  27   2                      i=1;            //重置显示位置
  28   2                      m=0;
  29   2                      while(1){
  30   3                              
  31   3                              //输入六次，若已经输入完成，显示SUCCESS
  32   3                              if(m>=6){
  33   4                                      LCD_ShowString(2,1,"SUCCESS");
  34   4                                      Delay999ms();
*** WARNING C206 IN LINE 34 OF main.c: 'Delay999ms': missing function-prototype
  35   4                                      LCD_ShowString(2,1,"       ");
  36   4                                      LCD_ShowString(1,1,"       ");
  37   4                                      i=1;
  38   4                                      break;
  39   4                              }
  40   3                              resetNum = MatrixKey();
  41   3                              //如果有按键输入
  42   3                              if(resetNum != 100){
  43   4                                      //如果按下删除键'B'
  44   4                                      if(resetNum == 'B'){
  45   5                                              m--;
  46   5                                              LCD_ShowChar(1,m+1,' ');
  47   5                                              continue;
  48   5                                      }
  49   4                                              
  50   4                                      //输出按键值
  51   4                                      if(resetNum < 10 )
  52   4                                              LCD_ShowChar(1,m+1,resetNum+48);
  53   4                                      else
C51 COMPILER V9.60.0.0   MAIN                                                              12/01/2022 20:32:07 PAGE 2   

  54   4                                              LCD_ShowChar(1,m+1,resetNum);
  55   4                              
  56   4                                      passWord[m] = resetNum; m++;    //修改密码
  57   4                              }
  58   3                      }
  59   2              }
  60   1      }
  61          
  62          
  63          void Timer0Init(){
  64   1              EA = 0;            //关闭总中断
  65   1              ET0 = 1;           //允许T0中断
  66   1              TMOD = 0x01;    //定时器模式，T0使用工作方式1
  67   1              TH0 = 0x18;    //该初值使隔段时间产生一次中断
  68   1              TL0 = 0xFC;
  69   1              TR0 = 1;                //打开T0定时器
  70   1      } 
  71          
  72          //打开蜂鸣器
  73          void startBeep(){
  74   1              EA = 1;
  75   1      }
  76          //关闭蜂鸣器
  77          void stopBeep(){
  78   1              EA = 0;
  79   1      }
  80          
  81          void Timer0() interrupt 1  {
  82   1              TH0 = 63628/256;        //通过定时器控制蜂鸣器发声频率
  83   1              TL0 = 63628%256;
  84   1              beep=~beep;                             //反复切换高低电平。 
  85   1      }
  86          
  87          
  88          void main(){    
  89   1              Timer0Init();
  90   1              LCD_Init();
  91   1              led = 0;        
  92   1              
  93   1          while(1){
  94   2              getkeyNum = MatrixKey();
  95   2                      
  96   2                      //如果有按键输入
  97   2              if(getkeyNum != 100){
  98   3                              
  99   3                              //输入密码成功后修改密码
 100   3                              if(open == 't'){
 101   4                                      resetPW(getkeyNum);
 102   4                                      open = 'f';
 103   4                                      continue;
 104   4                              }
 105   3                              
 106   3                              //如果按下删除键'B'
 107   3                              if(getkeyNum == 'B'){
 108   4                                      i--;
 109   4                                      LCD_ShowChar(1,i,' ');
 110   4                                      continue;
 111   4                              }
 112   3                              
 113   3                      
 114   3                              if(i<=6){
 115   4                                      //输出按键值
C51 COMPILER V9.60.0.0   MAIN                                                              12/01/2022 20:32:07 PAGE 3   

 116   4                                      if(getkeyNum < 10 )
 117   4                                              LCD_ShowChar(1,i,getkeyNum+48);
 118   4                                      else
 119   4                                              LCD_ShowChar(1,i,getkeyNum);
 120   4                                      
 121   4                                      pw[i-1] = getkeyNum;            //存入按键值
 122   4                                      i++;
 123   4                              }else{
 124   4                              
 125   4                                      if(getkeyNum == 'D'){           //如果密码相等，显示开锁成功
 126   5                                              if(pw[0]==passWord[0]&& pw[1]==passWord[1]&& pw[2]==passWord[2]&& pw[3]==passWord[3]&& pw[4]==passWor
             -d[4] && pw[5]==passWord[5]){
 127   6                                                      LCD_ShowString(2,1,"OPEN!");
 128   6                                                      led = 1;                        //点亮LED
 129   6                                                      open = 't';     
 130   6                                                      startBeep();            //打开蜂鸣器
 131   6                                                      Delay999ms();
 132   6                                                      stopBeep();                     //关闭蜂鸣器
 133   6                                                      led = 0;
 134   6                                                      LCD_ShowString(2,1,"      "); 
 135   6                                                      
 136   6                                              }
 137   5                                              //如果密码不符合，清空输入密码的显示屏
 138   5                                              else{
 139   6                                                      LCD_ShowString(2,1,"Failed!");
 140   6                                                      Delay999ms();
 141   6                                                      LCD_ShowString(2,1,"       ");
 142   6                                              }
 143   5                                              //重置pw,重置输入密码显示位置
 144   5                                              LCD_ShowString(1,1,"      ");
 145   5                                              i=1;    
 146   5                                      }
 147   4                                      
 148   4                              }
 149   3                      }       
 150   2              }
 151   1      }
 152          


MODULE INFORMATION:   STATIC OVERLAYABLE
   CODE SIZE        =    512    ----
   CONSTANT SIZE    =     43    ----
   XDATA SIZE       =   ----    ----
   PDATA SIZE       =   ----    ----
   DATA SIZE        =     23    ----
   IDATA SIZE       =   ----    ----
   BIT SIZE         =   ----    ----
END OF MODULE INFORMATION.


C51 COMPILATION COMPLETE.  1 WARNING(S),  0 ERROR(S)
