:0A05B600021C0000011F00012600D6
:10058700D2AFD2A9758901758CFE758A33D28C22B8
:03000B000203F9F4
:1003F900C0E0C0D075D000C000758CFE758A330589
:100409001DE51D7002051CD3951B7480F8651C98A9
:100419005004D2818002C281C3E51D9428E51C6481
:100429008094804006751C00751D00D000D0D0D086
:02043900E032AF
:0304F100E4FFFE27
:1004F4000000750805750934750AC3D50AFDD509C8
:04050400FAD508F725
:0B0508000FBF00010EEF640A4E70E10F
:0105130022C5
:100198001205871205731202DA8F1EEF646460F687
:1001A800C3EF940A748094805007E51E2430FB80C6
:1001B80002AB1E7D057F011205CBAF2605267420F4
:1001C8002FF8A61E051FE51E64447072AF20EF339A
:1001D80095E0FEEF64064E7057AF21EF3395E0FED1
:1001E800EF64014E704AAF22EF3395E0FEEF6406EC
:1001F8004E703DAF23EF3395E0FEEF64064E70304E
:10020800AF24EF3395E0FEEF64064E7023AF25EF81
:100218003395E0FEEF64064E7016F51CF51D751B50
:10022800031204F1E4F51CF51D751B017B598002CE
:100238007B4E7D017F011205CBE4F51FF5267FF487
:060248001204A902019E50
:0F04A900E4FDFCEFFBC3ED9B7480F86C985014DE
:0D04B80000751902751AC7D51AFDD519FA7D
:0704C5000DBD00010C80E0F9
:0104CC00220D
:0605A700C2A58F80D2A75F
:0805AD007F027EEFDEFEDFFCA1
:0105B5002223
:0A05C100C2A61205A7C2A70205ADED
:10053700CFCDCFCECCCE1201437C007D0A12014332
:04054700ED2430FF70
:0A054B00D2A61205A7C2A70205AD53
:10055500AE07EEFB7A0064017004ED148009EB64CC
:0E056500024A7009ED243F4480FF1205C122B6
:100573007F381205C17F0C1205C17F061205C17FAA
:04058300010205C1AB
:0A05CB00AC03120555AF0402054B06
:060514008B418A4289437D
:10051A00120555E4FDAB41AA42A9438D82758300B9
:0C052A00120104FF600612054B0D80E971
:0105360022A2
:0A047800EF24FFFDEE34FFFC7F0AC5
:080482008E3D8F3E8C3F8D4042
:10048A007F017E00E4FBEBC39540E53F6480F8748E
:0E049A008098500AAC3DAD3E1201310B80E857
:0104A8002231
:0404CD008A308B31B5
:1004D100120555AA32EAFF7E00D3940074809480FD
:0F04E100400D120478AC30AD311205371A80E6A9
:0104F00022E9
:0403AF008B828A8330
:1003B300120555C3E58364809480400D7F2B12059D
:1003C3004B85832C85822D80107F2D12054BC3E432
:1003D3009582F52DE49583F52CAA2BEAFF7E00D3B5
:1003E300940074809480400D120478AC2CAD2D12CF
:0503F30005371A80E649
:0103F80022E2
:040364008A358B3615
:10036800120555AA37EAD39400748094804037EA7E
:1003780024FFFDE434FFFC7F107E00120482AC35BC
:10038800AD36CFCDCFCECCCE120143EF540FFEC346
:10039800940A74809480EE5004243080022437FF3D
:0603A80012054B1A80BF94
:0103AE00222C
:04043B008A3A8B3B33
:10043F00120555AA3CEAFF7E00D394007480948085
:10044F004026EF24FFFDEE34FFFC7F02120482AC46
:10045F003AAD3BCFCDCFCECCCE120143EF540124DA
:08046F0030FF12054B1A80CD8D
:010477002262
:100597000102034104050642070809432A002344D0
:1002DA0078087C007D007BFF7A0579977E007F1085
:1002EA001200DE7518647590F0AF90EF64F06059F3
:1002FA007F0A1204A9AF90EF64F0604D7590F0AFD9
:10030A0090EF2450601124E0601224F060132470EE
:10031A007012751801800D75180580087518098006
:10032A000375180D75900FAF90EF24F5600B24FE3E
:10033A00600B14600E240780100518800C05180540
:10034A0018800674032518F518E518646470037F8D
:09035A00642274072518F8E6FF7F
:010363002277
:0300000002024EAB
:0C024E00787FE4F6D8FD7581430202952C
:10000E00E709F608DFFA8046E709F208DFFA803ED4
:10001E0088828C83E709F0A3DFFA8032E309F608C1
:10002E00DFFA8078E309F208DFFA807088828C8329
:10003E00E309F0A3DFFA806489828A83E0A3F608DD
:10004E00DFFA805889828A83E0A3F208DFFA804CB7
:10005E0080D280FA80C680D4806980F2803380108E
:10006E0080A680EA809A80A880DA80E280CA8033F7
:10007E0089828A83ECFAE493A3C8C582C8CCC5836F
:10008E00CCF0A3C8C582C8CCC583CCDFE9DEE7803F
:10009E000D89828A83E493A3F608DFF9ECFAA9F0BE
:1000AE00EDFB2289828A83ECFAE0A3C8C582C8CC14
:1000BE00C583CCF0A3C8C582C8CCC583CCDFEADE2D
:1000CE00E880DB89828A83E493A3F208DFF980CC8F
:1000DE0088F0EF60010E4E60C388F0ED2402B40488
:1000EE000050B9F582EB2402B4040050AF2323452F
:0600FE00822390005E73F6
:10010400BB010CE58229F582E5833AF583E02250B0
:1001140006E92582F8E622BBFE06E92582F8E222FA
:0D012400E58229F582E5833AF583E4932214
:10013100EF8DF0A4A8F0CF8CF0A428CE8DF0A42EE2
:02014100FE229C
:10014300BC000BBE0029EF8DF084FFADF022E4CCA0
:10015300F875F008EF2FFFEE33FEEC33FCEE9DEC69
:10016300984005FCEE9DFE0FD5F0E9E4CEFD22EDAF
:10017300F8F5F0EE8420D21CFEADF075F008EF2FF9
:10018300FFED33FD4007985006D5F0F222C398FDEA
:050193000FD5F0EA2287
:10025A00020198E493A3F8E493A34003F68001F221
:10026A0008DFF48029E493A3F85407240CC8C333A5
:10027A00C4540F4420C8834004F456800146F6DF74
:10028A00E4800B01020408102040809005B6E47E49
:10029A00019360BCA3FF543F30E509541FFEE49369
:1002AA00A360010ECF54C025E060A840B8E493A330
:1002BA00FAE493A3F8E493A3C8C582C8CAC583CA5B
:1002CA00F0A3C8C582C8CAC583CADFE9DEE780BE13
:0105C000003A
:00000001FF
