C51 COMPILER V9.60.0.0   MAIN                                                              10/25/2022 16:42:02 PAGE 1   


C51 COMPILER V9.60.0.0, COMPILATION OF MODULE MAIN
OBJECT MODULE PLACED IN .\Objects\main.obj
COMPILER INVOKED BY: D:\Download\keil\C51\BIN\C51.EXE main.c OPTIMIZE(8,SPEED) BROWSE DEBUG OBJECTEXTEND PRINT(.\Listing
                    -s\main.lst) OBJECT(.\Objects\main.obj)

line level    source

   1          #include <REGX52.H>
   2          #include "Delay1ms.h"
   3          #include "LCD1602.h"
   4          #include "MatrixKey.h"
   5          #include "INTRINS.h"
   6          #include "string.h"
   7          
   8          
   9          sbit pwm = P0^1 ;
  10          
  11          //全局变量
  12          unsigned char getkeyNum;
  13          int count = 0;
  14          unsigned char angle;    //旋转角度
  15          char pw[6];
  16          char pnum = 0;
  17          char i = 0;
  18          //char temp;
  19          
  20          
  21          void Timer0Init(){
  22   1              EA = 1;            //开启总中断
  23   1              ET0 = 1;           //允许T0中断
  24   1              TMOD = 0x01;    //定时器模式，T0使用工作方式1
  25   1              TH0 = 0xFE;    //该初值使每0.5ms产生一次中断
  26   1              TL0 = 0x33;
  27   1              TR0 = 1;                         //打开T0定时器
  28   1      } 
  29          
  30          
  31          void Timer0() interrupt 1  {
  32   1              TH0 = 0xFE;    
  33   1              TL0 = 0x33;
  34   1              count++;
  35   1              if(count <= angle){
  36   2                      pwm = 1;
  37   2              }
  38   1              else{
  39   2                      pwm = 0;
  40   2              }
  41   1              
  42   1              if(count >= 40){        //形成20ms的脉冲
  43   2                      count = 0;
  44   2              }               
  45   1      }
  46          //@11.0592MHz
  47          void Delay3s(){ 
  48   1              int j = 0;
  49   1              for(j;j<10;j++){
  50   2                      unsigned char i, j, k;
  51   2      
  52   2                      _nop_();
  53   2                      _nop_();
  54   2                      i = 5;
C51 COMPILER V9.60.0.0   MAIN                                                              10/25/2022 16:42:02 PAGE 2   

  55   2                      j = 52;
  56   2                      k = 195;
  57   2                      do
  58   2                      {
  59   3                              do
  60   3                              {
  61   4                                      while (--k);
  62   4                              } while (--j);
  63   3                      } while (--i);
  64   2              }
  65   1              
  66   1      }
  67          
  68          
  69          int main(){     
  70   1              Timer0Init();
  71   1              LCD_Init();
  72   1      
  73   1          while(1){
  74   2              getkeyNum = MatrixKey();
  75   2                      //如果有按键输入
  76   2              if(getkeyNum != 100){
  77   3                              //输出按键值
  78   3                              if(getkeyNum < 10 )
  79   3                                      LCD_ShowChar(1,5,getkeyNum+48);
  80   3                              else
  81   3                                      LCD_ShowChar(1,5,getkeyNum);
  82   3                              
  83   3                              pw[i++] = getkeyNum;
  84   3                              pnum ++;
  85   3      //                      temp = pnum + 48;
  86   3      //                      LCD_ShowChar(1,3,temp);
  87   3                              
  88   3                              if(getkeyNum == 'D'){
  89   4                                      //如果存入值为6个且和密码相等，操作舵机
  90   4                                      if(pw[0]==6&& pw[1]==1&& pw[2]==6&& pw[3]==6&& pw[4]==6 && pw[5]==6){
  91   5                          count = 0;
  92   5                                              angle = 3;
  93   5                                              Delay3s();
  94   5                                              count = 0;
  95   5                                              angle = 1;
  96   5                                              LCD_ShowChar(1,1,'Y');
  97   5                                              
  98   5                                      }
  99   4                                      //如果密码不符合，重置pw
 100   4                                      else{
 101   5                                              LCD_ShowChar(1,1,'N');
 102   5                                      }
 103   4                                      pnum = 0;
 104   4                                      i = 0;
 105   4                              }
 106   3                              
 107   3                              Delay1ms(500);
 108   3                      }
 109   2                      
 110   2              }
 111   1          return 0;
 112   1      }
 113          
 114          
 115          
 116          
C51 COMPILER V9.60.0.0   MAIN                                                              10/25/2022 16:42:02 PAGE 3   

 117          
 118          
 119          
 120          
 121          
 122          
 123          
 124          
*** WARNING C294 IN LINE 111 OF main.c: unreachable code


MODULE INFORMATION:   STATIC OVERLAYABLE
   CODE SIZE        =    299    ----
   CONSTANT SIZE    =   ----    ----
   XDATA SIZE       =   ----    ----
   PDATA SIZE       =   ----    ----
   DATA SIZE        =     12       3
   IDATA SIZE       =   ----    ----
   BIT SIZE         =   ----    ----
END OF MODULE INFORMATION.


C51 COMPILATION COMPLETE.  1 WARNING(S),  0 ERROR(S)
