BL51 BANKED LINKER/LOCATER V6.22.2.0                                                    10/25/2022  16:42:02  PAGE 1


BL51 BANKED LINKER/LOCATER V6.22.2.0, INVOKED BY:
D:\DOWNLOAD\KEIL\C51\BIN\BL51.EXE .\Objects\main.obj, .\Objects\Delay1ms.obj, .\Objects\LCD1602.obj, .\Objects\matrixKey
>> .obj TO .\Objects\Pro PRINT (.\Listings\Pro.m51) RAMSIZE (256)


MEMORY MODEL: SMALL


INPUT MODULES INCLUDED:
  .\Objects\main.obj (MAIN)
  .\Objects\Delay1ms.obj (DELAY1MS)
  .\Objects\LCD1602.obj (LCD1602)
  .\Objects\matrixKey.obj (MATRIXKEY)
  D:\DOWNLOAD\KEIL\C51\LIB\C51S.LIB (?C_STARTUP)
  D:\DOWNLOAD\KEIL\C51\LIB\C51S.LIB (?C?COPY)
  D:\DOWNLOAD\KEIL\C51\LIB\C51S.LIB (?C?CLDOPTR)
  D:\DOWNLOAD\KEIL\C51\LIB\C51S.LIB (?C?IMUL)
  D:\DOWNLOAD\KEIL\C51\LIB\C51S.LIB (?C?UIDIV)
  D:\DOWNLOAD\KEIL\C51\LIB\C51S.LIB (?C_INIT)


LINK MAP OF MODULE:  .\Objects\Pro (MAIN)


            TYPE    BASE      LENGTH    RELOCATION   SEGMENT NAME
            -----------------------------------------------------

            * * * * * * *   D A T A   M E M O R Y   * * * * * * *
            REG     0000H     0008H     ABSOLUTE     "REG BANK 0"
            DATA    0008H     0013H     UNIT         _DATA_GROUP_
            DATA    001BH     000CH     UNIT         ?DT?MAIN
            DATA    0027H     0007H     UNIT         ?DT?_LCD_SHOWSIGNEDNUM?LCD1602
            DATA    002EH     0005H     UNIT         ?DT?_LCD_SHOWNUM?LCD1602
            DATA    0033H     0005H     UNIT         ?DT?_LCD_SHOWHEXNUM?LCD1602
            DATA    0038H     0005H     UNIT         ?DT?_LCD_SHOWBINNUM?LCD1602
            DATA    003DH     0004H     UNIT         ?DT?_LCD_POW?LCD1602
            DATA    0041H     0003H     UNIT         ?DT?_LCD_SHOWSTRING?LCD1602
            IDATA   0044H     0001H     UNIT         ?STACK

            * * * * * * *   C O D E   M E M O R Y   * * * * * * *
            CODE    0000H     0003H     ABSOLUTE     
                    0003H     0008H                  *** GAP ***
            CODE    000BH     0003H     ABSOLUTE     
            CODE    000EH     018AH     UNIT         ?C?LIB_CODE
            CODE    0198H     00B6H     UNIT         ?PR?MAIN?MAIN
            CODE    024EH     008CH     UNIT         ?C_C51STARTUP
            CODE    02DAH     008AH     UNIT         ?PR?MATRIXKEY?MATRIXKEY
            CODE    0364H     004BH     UNIT         ?PR?_LCD_SHOWHEXNUM?LCD1602
            CODE    03AFH     004AH     UNIT         ?PR?_LCD_SHOWSIGNEDNUM?LCD1602
            CODE    03F9H     0042H     UNIT         ?PR?TIMER0?MAIN
            CODE    043BH     003DH     UNIT         ?PR?_LCD_SHOWBINNUM?LCD1602
            CODE    0478H     0031H     UNIT         ?PR?_LCD_POW?LCD1602
            CODE    04A9H     0024H     UNIT         ?PR?_DELAY1MS?DELAY1MS
            CODE    04CDH     0024H     UNIT         ?PR?_LCD_SHOWNUM?LCD1602
            CODE    04F1H     0023H     UNIT         ?PR?DELAY3S?MAIN
            CODE    0514H     0023H     UNIT         ?PR?_LCD_SHOWSTRING?LCD1602
            CODE    0537H     001EH     UNIT         ?PR?_LCD_WRITEDATA?LCD1602
            CODE    0555H     001EH     UNIT         ?PR?_LCD_SETCURSOR?LCD1602
BL51 BANKED LINKER/LOCATER V6.22.2.0                                                  10/25/2022  16:42:02  PAGE 2


            CODE    0573H     0014H     UNIT         ?PR?LCD_INIT?LCD1602
            CODE    0587H     0010H     UNIT         ?PR?TIMER0INIT?MAIN
            CODE    0597H     0010H     UNIT         ?CO?MATRIXKEY
            CODE    05A7H     000FH     UNIT         ?PR?LCD_DELAY?LCD1602
            CODE    05B6H     000BH     UNIT         ?C_INITSEG
            CODE    05C1H     000AH     UNIT         ?PR?_LCD_WRITECOMMAND?LCD1602
            CODE    05CBH     000AH     UNIT         ?PR?_LCD_SHOWCHAR?LCD1602



OVERLAY MAP OF MODULE:   .\Objects\Pro (MAIN)


SEGMENT                                  DATA_GROUP 
  +--> CALLED SEGMENT                  START    LENGTH
------------------------------------------------------
?C_C51STARTUP                          -----    -----
  +--> ?PR?MAIN?MAIN
  +--> ?C_INITSEG

?PR?MAIN?MAIN                          -----    -----
  +--> ?PR?TIMER0INIT?MAIN
  +--> ?PR?LCD_INIT?LCD1602
  +--> ?PR?MATRIXKEY?MATRIXKEY
  +--> ?PR?_LCD_SHOWCHAR?LCD1602
  +--> ?PR?DELAY3S?MAIN
  +--> ?PR?_DELAY1MS?DELAY1MS

?PR?LCD_INIT?LCD1602                   -----    -----
  +--> ?PR?_LCD_WRITECOMMAND?LCD1602

?PR?_LCD_WRITECOMMAND?LCD1602          -----    -----
  +--> ?PR?LCD_DELAY?LCD1602

?PR?MATRIXKEY?MATRIXKEY                0008H    0011H
  +--> ?CO?MATRIXKEY
  +--> ?PR?_DELAY1MS?DELAY1MS

?PR?_DELAY1MS?DELAY1MS                 0019H    0002H

?PR?_LCD_SHOWCHAR?LCD1602              -----    -----
  +--> ?PR?_LCD_SETCURSOR?LCD1602
  +--> ?PR?_LCD_WRITEDATA?LCD1602

?PR?_LCD_SETCURSOR?LCD1602             -----    -----
  +--> ?PR?_LCD_WRITECOMMAND?LCD1602

?PR?_LCD_WRITEDATA?LCD1602             -----    -----
  +--> ?PR?LCD_DELAY?LCD1602

?PR?DELAY3S?MAIN                       0008H    0003H



SYMBOL TABLE OF MODULE:  .\Objects\Pro (MAIN)

  VALUE           TYPE          NAME
BL51 BANKED LINKER/LOCATER V6.22.2.0                                                  10/25/2022  16:42:02  PAGE 3


  ----------------------------------

  -------         MODULE        MAIN
  C:0000H         SYMBOL        _ICE_DUMMY_
  D:0080H         PUBLIC        P0
  B:00A8H.7       PUBLIC        EA
  D:001BH         PUBLIC        angle
  C:04F1H         PUBLIC        Delay3s
  C:0198H         PUBLIC        main
  D:001CH         PUBLIC        count
  C:03F9H         PUBLIC        Timer0
  D:0089H         PUBLIC        TMOD
  D:001EH         PUBLIC        getkeyNum
  D:001FH         PUBLIC        pnum
  B:00A8H.1       PUBLIC        ET0
  C:0587H         PUBLIC        Timer0Init
  D:008CH         PUBLIC        TH0
  D:008AH         PUBLIC        TL0
  B:0080H.1       PUBLIC        pwm
  B:0088H.4       PUBLIC        TR0
  D:0020H         PUBLIC        pw
  D:0026H         PUBLIC        i
  -------         PROC          TIMER0INIT
  C:0587H         LINE#         21
  C:0587H         LINE#         22
  C:0589H         LINE#         23
  C:058BH         LINE#         24
  C:058EH         LINE#         25
  C:0591H         LINE#         26
  C:0594H         LINE#         27
  C:0596H         LINE#         28
  -------         ENDPROC       TIMER0INIT
  -------         PROC          TIMER0
  C:03F9H         LINE#         31
  C:0402H         LINE#         32
  C:0405H         LINE#         33
  C:0408H         LINE#         34
  C:0410H         LINE#         35
  C:041BH         LINE#         36
  C:041DH         LINE#         37
  C:041FH         LINE#         38
  C:041FH         LINE#         39
  C:0421H         LINE#         40
  C:0421H         LINE#         42
  C:042EH         LINE#         43
  C:0434H         LINE#         44
  C:0434H         LINE#         45
  -------         ENDPROC       TIMER0
  -------         PROC          DELAY3S
  -------         DO            
  D:0006H         SYMBOL        j
  -------         DO            
  D:0008H         SYMBOL        i
  D:0009H         SYMBOL        j
  D:000AH         SYMBOL        k
  -------         ENDDO         
  -------         ENDDO         
BL51 BANKED LINKER/LOCATER V6.22.2.0                                                  10/25/2022  16:42:02  PAGE 4


  C:04F1H         LINE#         47
  C:04F1H         LINE#         48
  C:04F4H         LINE#         49
  C:04F4H         LINE#         52
  C:04F5H         LINE#         53
  C:04F6H         LINE#         54
  C:04F9H         LINE#         55
  C:04FCH         LINE#         56
  C:04FFH         LINE#         58
  C:04FFH         LINE#         60
  C:04FFH         LINE#         61
  C:0502H         LINE#         62
  C:0505H         LINE#         63
  C:0508H         LINE#         64
  C:0513H         LINE#         66
  -------         ENDPROC       DELAY3S
  -------         PROC          MAIN
  C:0198H         LINE#         69
  C:0198H         LINE#         70
  C:019BH         LINE#         71
  C:019EH         LINE#         73
  C:019EH         LINE#         74
  C:01A3H         LINE#         76
  C:01A8H         LINE#         78
  C:01B2H         LINE#         79
  C:01B9H         LINE#         81
  C:01C2H         LINE#         83
  C:01CCH         LINE#         84
  C:01CEH         LINE#         88
  C:01D4H         LINE#         90
  C:0222H         LINE#         91
  C:0226H         LINE#         92
  C:0229H         LINE#         93
  C:022CH         LINE#         94
  C:0231H         LINE#         95
  C:0234H         LINE#         96
  C:0236H         LINE#         98
  C:0238H         LINE#         100
  C:0238H         LINE#         101
  C:0241H         LINE#         102
  C:0241H         LINE#         103
  C:0244H         LINE#         104
  C:0246H         LINE#         105
  C:0246H         LINE#         107
  C:024BH         LINE#         108
  C:024BH         LINE#         110
  -------         ENDPROC       MAIN
  -------         ENDMOD        MAIN

  -------         MODULE        DELAY1MS
  C:0000H         SYMBOL        _ICE_DUMMY_
  C:04A9H         PUBLIC        _Delay1ms
  -------         PROC          _DELAY1MS
  D:0007H         SYMBOL        time
  -------         DO            
  D:0004H         SYMBOL        t
  -------         DO            
BL51 BANKED LINKER/LOCATER V6.22.2.0                                                  10/25/2022  16:42:02  PAGE 5


  D:0019H         SYMBOL        i
  D:001AH         SYMBOL        j
  -------         ENDDO         
  -------         ENDDO         
  C:04A9H         LINE#         4
  C:04A9H         LINE#         5
  C:04A9H         LINE#         7
  C:04B8H         LINE#         10
  C:04B9H         LINE#         11
  C:04BCH         LINE#         12
  C:04BFH         LINE#         14
  C:04BFH         LINE#         15
  C:04C2H         LINE#         16
  C:04C5H         LINE#         17
  C:04CCH         LINE#         19
  -------         ENDPROC       _DELAY1MS
  -------         ENDMOD        DELAY1MS

  -------         MODULE        LCD1602
  C:0000H         SYMBOL        _ICE_DUMMY_
  D:0080H         PUBLIC        P0
  D:00A0H         PUBLIC        P2
  C:05C1H         PUBLIC        _LCD_WriteCommand
  C:04CDH         PUBLIC        _LCD_ShowNum
  C:043BH         PUBLIC        _LCD_ShowBinNum
  C:05ADH         PUBLIC        LCD_Delay
  C:0364H         PUBLIC        _LCD_ShowHexNum
  C:054BH         PUBLIC        _LCD_WriteData
  B:00A0H.7       PUBLIC        LCD_EN
  C:0573H         PUBLIC        LCD_Init
  C:0514H         PUBLIC        _LCD_ShowString
  C:05CBH         PUBLIC        _LCD_ShowChar
  B:00A0H.6       PUBLIC        LCD_RS
  B:00A0H.5       PUBLIC        LCD_RW
  C:0555H         PUBLIC        _LCD_SetCursor
  C:03AFH         PUBLIC        _LCD_ShowSignedNum
  C:0482H         PUBLIC        _LCD_Pow
  -------         PROC          L?0047
  -------         ENDPROC       L?0047
  -------         PROC          LCD_DELAY
  -------         DO            
  D:0007H         SYMBOL        i
  D:0006H         SYMBOL        j
  -------         ENDDO         
  C:05ADH         LINE#         15
  C:05ADH         LINE#         16
  C:05ADH         LINE#         19
  C:05AFH         LINE#         20
  C:05B1H         LINE#         22
  C:05B1H         LINE#         23
  C:05B3H         LINE#         24
  C:05B5H         LINE#         25
  -------         ENDPROC       LCD_DELAY
  -------         PROC          _LCD_WRITECOMMAND
  D:0007H         SYMBOL        Command
  C:05C1H         LINE#         32
  C:05C1H         LINE#         33
BL51 BANKED LINKER/LOCATER V6.22.2.0                                                  10/25/2022  16:42:02  PAGE 6


  C:05C1H         LINE#         34
  C:05C3H         LINE#         35
  C:05C3H         LINE#         36
  C:05C3H         LINE#         37
  C:05C3H         LINE#         38
  C:05C6H         LINE#         39
  C:05C8H         LINE#         40
  -------         ENDPROC       _LCD_WRITECOMMAND
  -------         PROC          L?0045
  -------         ENDPROC       L?0045
  -------         PROC          _LCD_WRITEDATA
  D:0007H         SYMBOL        Data
  C:054BH         LINE#         48
  C:054BH         LINE#         49
  C:054BH         LINE#         50
  C:054DH         LINE#         51
  C:054DH         LINE#         52
  C:054DH         LINE#         53
  C:054DH         LINE#         54
  C:0550H         LINE#         55
  C:0552H         LINE#         56
  -------         ENDPROC       _LCD_WRITEDATA
  -------         PROC          _LCD_SETCURSOR
  D:0006H         SYMBOL        Line
  D:0005H         SYMBOL        Column
  C:0555H         LINE#         65
  C:0557H         LINE#         66
  C:0557H         LINE#         67
  C:055FH         LINE#         68
  C:055FH         LINE#         69
  C:0561H         LINE#         70
  C:0563H         LINE#         71
  C:0569H         LINE#         72
  C:0569H         LINE#         73
  C:0572H         LINE#         74
  C:0572H         LINE#         75
  -------         ENDPROC       _LCD_SETCURSOR
  -------         PROC          LCD_INIT
  C:0573H         LINE#         82
  C:0573H         LINE#         83
  C:0573H         LINE#         84
  C:0578H         LINE#         85
  C:057DH         LINE#         86
  C:0582H         LINE#         87
  -------         ENDPROC       LCD_INIT
  -------         PROC          _LCD_SHOWCHAR
  D:0006H         SYMBOL        Line
  D:0005H         SYMBOL        Column
  D:0004H         SYMBOL        Char
  C:05CBH         LINE#         97
  C:05CDH         LINE#         98
  C:05CDH         LINE#         99
  C:05D0H         LINE#         100
  -------         ENDPROC       _LCD_SHOWCHAR
  -------         PROC          _LCD_SHOWSTRING
  D:0007H         SYMBOL        Line
  D:0005H         SYMBOL        Column
BL51 BANKED LINKER/LOCATER V6.22.2.0                                                  10/25/2022  16:42:02  PAGE 7


  D:0041H         SYMBOL        String
  -------         DO            
  D:0005H         SYMBOL        i
  -------         ENDDO         
  C:0514H         LINE#         110
  C:051AH         LINE#         111
  C:051AH         LINE#         113
  C:051DH         LINE#         114
  C:0530H         LINE#         115
  C:0530H         LINE#         116
  C:0533H         LINE#         117
  C:0536H         LINE#         118
  -------         ENDPROC       _LCD_SHOWSTRING
  -------         PROC          L?0046
  -------         ENDPROC       L?0046
  -------         PROC          _LCD_POW
  D:003DH         SYMBOL        X
  D:003FH         SYMBOL        Y
  -------         DO            
  D:0003H         SYMBOL        i
  D:0006H         SYMBOL        Result
  -------         ENDDO         
  C:0482H         LINE#         123
  C:048AH         LINE#         124
  C:048AH         LINE#         126
  C:048EH         LINE#         127
  C:049EH         LINE#         128
  C:049EH         LINE#         129
  C:04A5H         LINE#         130
  C:04A8H         LINE#         131
  C:04A8H         LINE#         132
  -------         ENDPROC       _LCD_POW
  -------         PROC          _LCD_SHOWNUM
  D:0007H         SYMBOL        Line
  D:0005H         SYMBOL        Column
  D:0030H         SYMBOL        Number
  D:0032H         SYMBOL        Length
  -------         DO            
  D:0002H         SYMBOL        i
  -------         ENDDO         
  C:04CDH         LINE#         142
  C:04D1H         LINE#         143
  C:04D1H         LINE#         145
  C:04D4H         LINE#         146
  C:04E3H         LINE#         147
  C:04E3H         LINE#         148
  C:04EDH         LINE#         149
  C:04F0H         LINE#         150
  -------         ENDPROC       _LCD_SHOWNUM
  -------         PROC          _LCD_SHOWSIGNEDNUM
  D:0007H         SYMBOL        Line
  D:0005H         SYMBOL        Column
  D:0082H         SYMBOL        Number
  D:002BH         SYMBOL        Length
  -------         DO            
  D:0002H         SYMBOL        i
  D:002CH         SYMBOL        Number1
BL51 BANKED LINKER/LOCATER V6.22.2.0                                                  10/25/2022  16:42:02  PAGE 8


  -------         ENDDO         
  C:03AFH         LINE#         160
  C:03B3H         LINE#         161
  C:03B3H         LINE#         164
  C:03B6H         LINE#         165
  C:03BFH         LINE#         166
  C:03BFH         LINE#         167
  C:03C4H         LINE#         168
  C:03CAH         LINE#         169
  C:03CCH         LINE#         171
  C:03CCH         LINE#         172
  C:03D1H         LINE#         173
  C:03DCH         LINE#         174
  C:03DCH         LINE#         175
  C:03EBH         LINE#         176
  C:03EBH         LINE#         177
  C:03F5H         LINE#         178
  C:03F8H         LINE#         179
  -------         ENDPROC       _LCD_SHOWSIGNEDNUM
  -------         PROC          _LCD_SHOWHEXNUM
  D:0007H         SYMBOL        Line
  D:0005H         SYMBOL        Column
  D:0035H         SYMBOL        Number
  D:0037H         SYMBOL        Length
  -------         DO            
  D:0002H         SYMBOL        i
  D:0006H         SYMBOL        SingleNumber
  -------         ENDDO         
  C:0364H         LINE#         189
  C:0368H         LINE#         190
  C:0368H         LINE#         192
  C:036BH         LINE#         193
  C:0377H         LINE#         194
  C:0377H         LINE#         195
  C:0397H         LINE#         196
  C:03A1H         LINE#         197
  C:03A1H         LINE#         198
  C:03A3H         LINE#         199
  C:03A5H         LINE#         201
  C:03A5H         LINE#         202
  C:03ABH         LINE#         203
  C:03ABH         LINE#         204
  C:03AEH         LINE#         205
  -------         ENDPROC       _LCD_SHOWHEXNUM
  -------         PROC          _LCD_SHOWBINNUM
  D:0007H         SYMBOL        Line
  D:0005H         SYMBOL        Column
  D:003AH         SYMBOL        Number
  D:003CH         SYMBOL        Length
  -------         DO            
  D:0002H         SYMBOL        i
  -------         ENDDO         
  C:043BH         LINE#         215
  C:043FH         LINE#         216
  C:043FH         LINE#         218
  C:0442H         LINE#         219
  C:0451H         LINE#         220
BL51 BANKED LINKER/LOCATER V6.22.2.0                                                  10/25/2022  16:42:02  PAGE 9


  C:0451H         LINE#         221
  C:0474H         LINE#         222
  C:0477H         LINE#         223
  -------         ENDPROC       _LCD_SHOWBINNUM
  -------         ENDMOD        LCD1602

  -------         MODULE        MATRIXKEY
  C:0000H         SYMBOL        _ICE_DUMMY_
  D:0090H         PUBLIC        P1
  C:02DAH         PUBLIC        MatrixKey
  C:0597H         SYMBOL        _?ix1000
  -------         PROC          MATRIXKEY
  -------         DO            
  D:0008H         SYMBOL        keyValue
  D:0018H         SYMBOL        num
  -------         ENDDO         
  C:02DAH         LINE#         9
  C:02DAH         LINE#         10
  C:02EDH         LINE#         11
  C:02F0H         LINE#         12
  C:02F3H         LINE#         13
  C:02FAH         LINE#         14
  C:02FFH         LINE#         15
  C:0306H         LINE#         16
  C:0309H         LINE#         17
  C:031CH         LINE#         18
  C:031CH         LINE#         19
  C:0321H         LINE#         20
  C:0326H         LINE#         21
  C:032BH         LINE#         22
  C:032EH         LINE#         23
  C:032EH         LINE#         24
  C:0331H         LINE#         25
  C:0341H         LINE#         26
  C:0341H         LINE#         27
  C:0343H         LINE#         28
  C:0347H         LINE#         29
  C:034DH         LINE#         30
  C:0353H         LINE#         31
  C:0353H         LINE#         32
  C:0353H         LINE#         33
  C:0353H         LINE#         35
  C:0359H         LINE#         36
  C:035CH         LINE#         38
  C:0363H         LINE#         39
  -------         ENDPROC       MATRIXKEY
  -------         ENDMOD        MATRIXKEY

  -------         MODULE        ?C?COPY
  C:00DEH         PUBLIC        ?C?COPY
  -------         ENDMOD        ?C?COPY

  -------         MODULE        ?C?CLDOPTR
  C:0104H         PUBLIC        ?C?CLDOPTR
  -------         ENDMOD        ?C?CLDOPTR

  -------         MODULE        ?C?IMUL
BL51 BANKED LINKER/LOCATER V6.22.2.0                                                  10/25/2022  16:42:02  PAGE 10


  C:0131H         PUBLIC        ?C?IMUL
  -------         ENDMOD        ?C?IMUL

  -------         MODULE        ?C?UIDIV
  C:0143H         PUBLIC        ?C?UIDIV
  -------         ENDMOD        ?C?UIDIV

*** WARNING L16: UNCALLED SEGMENT, IGNORED FOR OVERLAY PROCESS
    SEGMENT: ?PR?_LCD_SHOWSTRING?LCD1602

*** WARNING L16: UNCALLED SEGMENT, IGNORED FOR OVERLAY PROCESS
    SEGMENT: ?PR?_LCD_SHOWNUM?LCD1602

*** WARNING L16: UNCALLED SEGMENT, IGNORED FOR OVERLAY PROCESS
    SEGMENT: ?PR?_LCD_SHOWSIGNEDNUM?LCD1602

*** WARNING L16: UNCALLED SEGMENT, IGNORED FOR OVERLAY PROCESS
    SEGMENT: ?PR?_LCD_SHOWHEXNUM?LCD1602

*** WARNING L16: UNCALLED SEGMENT, IGNORED FOR OVERLAY PROCESS
    SEGMENT: ?PR?_LCD_SHOWBINNUM?LCD1602

Program Size: data=69.0 xdata=0 code=1485
LINK/LOCATE RUN COMPLETE.  5 WARNING(S),  0 ERROR(S)
